:020000040000FA
:02000000C22A12
:0800080005288B13A400030876
:10001000A3000B1E0D288B1831280C1812280B1961
:1000200025283628AA0A01302A0603190B160230A1
:100030002A06031D1D28AA012B170B308F00DC3068
:100040008E000C10313090003628031383128B1071
:100050000B11CE3081008316823081008312AB13E6
:100060003628AA010B128B10AB161D28230883001B
:1000700024080900AB1B3A280800EE21B7213A20DA
:10008000BA21BC213A20BF21D0213A20D321D52149
:100090003A20D821F0210800EE21BC213A20BF21CE
:1000A000C1213A20C421C6213A20C921D0213A20B9
:1000B000D321D5213A20D821DA213A20DD21F0219F
:1000C0000800EE21DF213A20E221E4213A20E72155
:1000D000E9213A20EC21F0210800F221B7213A2051
:1000E000BA21BC213A20BF21C1213A20C421F421E8
:1000F0000800F221CB213A20CE21D0213A20D32171
:10010000D5213A20D821DA213A20DD21F421080036
:10011000F621B7213A20BA21BC213A20BF21C121C2
:100120003A20C421C6213A20C921CB213A20CE2130
:10013000D0213A20D321F8210800F621D5213A20F8
:10014000D821DA213A20DD21DF213A20E221E42101
:100150003A20E721E9213A20EC21F8210800FA2190
:10016000B7213A20BA21BC213A20BF21C1213A202F
:10017000C421C6213A20C921FC210800FA21D0213E
:100180003A20D321D5213A20D821DA213A20DD2185
:10019000DF213A20E221E4213A20E721FC21080076
:1001A000FE21B7213A20BA21BC213A20BF21C1212A
:1001B0003A20C421C6213A20C92100220800FE218C
:1001C000CB213A20CE21D0213A20D321D5213A206B
:1001D000D821DA213A20DD21DF213A20E221002254
:1001E00008000222C1213A20C421C6213A20C92197
:1001F000CB213A20CE21D0213A20D321042208005D
:100200000222DA213A20DD21DF213A20E221E42115
:100210003A20E721E9213A20EC21042208000622B5
:10022000B7213A20BA21BC213A20BF21C1213A206E
:10023000C421C6213A20C921082208000622D02163
:100240003A20D321082208000622D5213A20D821BD
:10025000DA213A20DD21DF213A20E221E4213A208F
:10026000E721E9213A20EC21082208000E22D521BD
:100270003A20D821DA213A20DD21DF213A20E2217B
:10028000E4213A20E721E9213A20EC21102208005C
:100290000A22DA213A20DD21DF213A20E221E4217D
:1002A0003A20E721E9213A20EC210C220800122211
:1002B000D0213A20D321D5213A20D821DA213A2061
:1002C000DD21DF213A20E221E4213A20E721E92162
:1002D0003A20EC21142208000A22BC213A20BF2136
:1002E000C1213A20C421C6213A20C921CB213A207C
:1002F000CE21D0213A20D321D5213A20D8210C2259
:1003000008000E22B7213A20BA21BC213A20BF2191
:10031000C1213A20C421C6213A20C921CB213A204B
:10032000CE21D0213A20D321D5213A20D821DA215B
:100330003A20DD21DF213A20E221E4213A20E721A1
:10034000E9213A20EC21102208001222B7213A209C
:10035000BA21BC213A20BF21C1213A20C421C621A3
:100360003A20C921CB213A20CE2114220800861739
:10037000AB170800861308000617AB170800061312
:1003800008008616AB170800861208000616AB1781
:100390000800061208008615AB1708008611080031
:1003A0000615AB170800061108008614AB170800E5
:1003B000861008008717AB17080087130800071777
:1003C000AB170800071308008716AB170800871241
:1003D00008000716AB1708000712080005140800EC
:1003E0000510080085140800851008000515080090
:1003F000051108008515080085110800051608007C
:100400000512080085160800851208000714080068
:100410000710080087140800871008000715080057
:10042000071108008715080087110800BA21BF21AD
:10043000C421C921CE21D321D821DD21E221E72108
:10044000EC21F021F421F821FC21002204220822D1
:100450000C22102214220800AB1D2F2A7A2A013008
:100460002706031D352A3D20612002302706031D83
:100470003B2A4C206D2003302706031D412A4C20C7
:10048000792004302706031D472A4C208820053098
:100490002706031D4D2A4C209D2006302706031DEC
:1004A000532A4C20AF2007302706031D592A4C2021
:1004B000BE2008302706031D5F2A4C20D0200930BB
:1004C0002706031D652A4C20DF200A302706031D5E
:1004D0006B2A4C20F1200B302706031D712A4C207B
:1004E00000210C302706031D772A4C200F212B1EDC
:1004F0007F2A080001302806031D7F2A1E210230B2
:100500002806031D852A1E21362103302806031DD7
:100510008B2A1E21482104302806031D912A1E2102
:10052000572105302806031D972A1E216C2106300D
:100530002806031D9D2A1E21812107302806031D40
:10054000A32A1E21A52108302806031DA92A24213B
:10055000812109302806031DAF2A24216C210A308D
:100560002806031DB52A242157210B302806031D18
:10057000BB2A242148210C302806031D0800242111
:1005800036210800831603178801890103130130FF
:100590008600870185010C148312F0308B00CE3069
:1005A000810083168230810083120C100B308F0083
:1005B000DC308E0031309000AB01AA01A501A6010C
:1005C0008601870185010130A700A8002C22AB1A03
:1005D0000A2B2B1FE62A2B13A50A3C302506031DE8
:1005E000E62AA501A60A05302606031DE62AA6016D
:1005F000A80A083028060319A70A0D302706031D8C
:10060000032B0130A7000D302806031DE62A013018
:10061000A800E62AAB122B132B16AB11AA01A501D9
:10062000A601A9011622AB1A3B2B2B1F122B2B1351
:10063000A90A0A302906031D272BA901AB1D232B6C
:100640002B12AB11E62A2B12AB150130A9002C227C
:10065000AB1A3B2B2B1F272B2B13A90A0330290680
:100660000319122B063029060319122B093029060B
:100670000319122B272BAB12AA012B13AB1D482BEE
:10068000A80A0D302806031D512B0130A800512B5C
:100690002B1E512BA70A0D302706031D512B0130AD
:0806A000A7000130A900272B7F
:02400E00E127A8
:02401000FF3F70
:00000001FF
